{
  "contractName": "collection",
  "abi": [
    {
      "inputs": [],
      "stateMutability": "nonpayable",
      "type": "constructor"
    },
    {
      "anonymous": false,
      "inputs": [
        {
          "indexed": true,
          "internalType": "address",
          "name": "account",
          "type": "address"
        },
        {
          "indexed": true,
          "internalType": "address",
          "name": "operator",
          "type": "address"
        },
        {
          "indexed": false,
          "internalType": "bool",
          "name": "approved",
          "type": "bool"
        }
      ],
      "name": "ApprovalForAll",
      "type": "event"
    },
    {
      "anonymous": false,
      "inputs": [
        {
          "indexed": true,
          "internalType": "address",
          "name": "previousOwner",
          "type": "address"
        },
        {
          "indexed": true,
          "internalType": "address",
          "name": "newOwner",
          "type": "address"
        }
      ],
      "name": "OwnershipTransferred",
      "type": "event"
    },
    {
      "anonymous": false,
      "inputs": [
        {
          "indexed": true,
          "internalType": "address",
          "name": "operator",
          "type": "address"
        },
        {
          "indexed": true,
          "internalType": "address",
          "name": "from",
          "type": "address"
        },
        {
          "indexed": true,
          "internalType": "address",
          "name": "to",
          "type": "address"
        },
        {
          "indexed": false,
          "internalType": "uint256[]",
          "name": "ids",
          "type": "uint256[]"
        },
        {
          "indexed": false,
          "internalType": "uint256[]",
          "name": "values",
          "type": "uint256[]"
        }
      ],
      "name": "TransferBatch",
      "type": "event"
    },
    {
      "anonymous": false,
      "inputs": [
        {
          "indexed": true,
          "internalType": "address",
          "name": "operator",
          "type": "address"
        },
        {
          "indexed": true,
          "internalType": "address",
          "name": "from",
          "type": "address"
        },
        {
          "indexed": true,
          "internalType": "address",
          "name": "to",
          "type": "address"
        },
        {
          "indexed": false,
          "internalType": "uint256",
          "name": "id",
          "type": "uint256"
        },
        {
          "indexed": false,
          "internalType": "uint256",
          "name": "value",
          "type": "uint256"
        }
      ],
      "name": "TransferSingle",
      "type": "event"
    },
    {
      "anonymous": false,
      "inputs": [
        {
          "indexed": false,
          "internalType": "string",
          "name": "value",
          "type": "string"
        },
        {
          "indexed": true,
          "internalType": "uint256",
          "name": "id",
          "type": "uint256"
        }
      ],
      "name": "URI",
      "type": "event"
    },
    {
      "inputs": [
        {
          "internalType": "address",
          "name": "account",
          "type": "address"
        },
        {
          "internalType": "uint256",
          "name": "id",
          "type": "uint256"
        }
      ],
      "name": "balanceOf",
      "outputs": [
        {
          "internalType": "uint256",
          "name": "",
          "type": "uint256"
        }
      ],
      "stateMutability": "view",
      "type": "function"
    },
    {
      "inputs": [
        {
          "internalType": "address[]",
          "name": "accounts",
          "type": "address[]"
        },
        {
          "internalType": "uint256[]",
          "name": "ids",
          "type": "uint256[]"
        }
      ],
      "name": "balanceOfBatch",
      "outputs": [
        {
          "internalType": "uint256[]",
          "name": "",
          "type": "uint256[]"
        }
      ],
      "stateMutability": "view",
      "type": "function"
    },
    {
      "inputs": [
        {
          "internalType": "address",
          "name": "account",
          "type": "address"
        },
        {
          "internalType": "address",
          "name": "operator",
          "type": "address"
        }
      ],
      "name": "isApprovedForAll",
      "outputs": [
        {
          "internalType": "bool",
          "name": "",
          "type": "bool"
        }
      ],
      "stateMutability": "view",
      "type": "function"
    },
    {
      "inputs": [],
      "name": "owner",
      "outputs": [
        {
          "internalType": "address",
          "name": "",
          "type": "address"
        }
      ],
      "stateMutability": "view",
      "type": "function"
    },
    {
      "inputs": [],
      "name": "renounceOwnership",
      "outputs": [],
      "stateMutability": "nonpayable",
      "type": "function"
    },
    {
      "inputs": [
        {
          "internalType": "address",
          "name": "from",
          "type": "address"
        },
        {
          "internalType": "address",
          "name": "to",
          "type": "address"
        },
        {
          "internalType": "uint256[]",
          "name": "ids",
          "type": "uint256[]"
        },
        {
          "internalType": "uint256[]",
          "name": "amounts",
          "type": "uint256[]"
        },
        {
          "internalType": "bytes",
          "name": "data",
          "type": "bytes"
        }
      ],
      "name": "safeBatchTransferFrom",
      "outputs": [],
      "stateMutability": "nonpayable",
      "type": "function"
    },
    {
      "inputs": [
        {
          "internalType": "address",
          "name": "from",
          "type": "address"
        },
        {
          "internalType": "address",
          "name": "to",
          "type": "address"
        },
        {
          "internalType": "uint256",
          "name": "id",
          "type": "uint256"
        },
        {
          "internalType": "uint256",
          "name": "amount",
          "type": "uint256"
        },
        {
          "internalType": "bytes",
          "name": "data",
          "type": "bytes"
        }
      ],
      "name": "safeTransferFrom",
      "outputs": [],
      "stateMutability": "nonpayable",
      "type": "function"
    },
    {
      "inputs": [
        {
          "internalType": "address",
          "name": "operator",
          "type": "address"
        },
        {
          "internalType": "bool",
          "name": "approved",
          "type": "bool"
        }
      ],
      "name": "setApprovalForAll",
      "outputs": [],
      "stateMutability": "nonpayable",
      "type": "function"
    },
    {
      "inputs": [
        {
          "internalType": "bytes4",
          "name": "interfaceId",
          "type": "bytes4"
        }
      ],
      "name": "supportsInterface",
      "outputs": [
        {
          "internalType": "bool",
          "name": "",
          "type": "bool"
        }
      ],
      "stateMutability": "view",
      "type": "function"
    },
    {
      "inputs": [
        {
          "internalType": "address",
          "name": "newOwner",
          "type": "address"
        }
      ],
      "name": "transferOwnership",
      "outputs": [],
      "stateMutability": "nonpayable",
      "type": "function"
    },
    {
      "inputs": [
        {
          "internalType": "address",
          "name": "newOwner",
          "type": "address"
        }
      ],
      "name": "setOwner",
      "outputs": [],
      "stateMutability": "nonpayable",
      "type": "function"
    },
    {
      "inputs": [
        {
          "internalType": "uint256",
          "name": "tokenId",
          "type": "uint256"
        },
        {
          "internalType": "uint256",
          "name": "amount",
          "type": "uint256"
        }
      ],
      "name": "mint",
      "outputs": [
        {
          "internalType": "bool",
          "name": "",
          "type": "bool"
        }
      ],
      "stateMutability": "nonpayable",
      "type": "function"
    },
    {
      "inputs": [
        {
          "internalType": "uint256",
          "name": "tokenId",
          "type": "uint256"
        },
        {
          "internalType": "address",
          "name": "holder",
          "type": "address"
        }
      ],
      "name": "giveaway",
      "outputs": [
        {
          "internalType": "bool",
          "name": "",
          "type": "bool"
        }
      ],
      "stateMutability": "nonpayable",
      "type": "function"
    },
    {
      "inputs": [
        {
          "internalType": "uint256",
          "name": "tokenId",
          "type": "uint256"
        }
      ],
      "name": "uri",
      "outputs": [
        {
          "internalType": "string",
          "name": "",
          "type": "string"
        }
      ],
      "stateMutability": "view",
      "type": "function"
    },
    {
      "inputs": [
        {
          "internalType": "string",
          "name": "tokenURI",
          "type": "string"
        }
      ],
      "name": "setURI",
      "outputs": [],
      "stateMutability": "nonpayable",
      "type": "function"
    },
    {
      "inputs": [
        {
          "internalType": "address",
          "name": "holder",
          "type": "address"
        }
      ],
      "name": "addUserToWhitelist",
      "outputs": [
        {
          "internalType": "bool",
          "name": "",
          "type": "bool"
        }
      ],
      "stateMutability": "nonpayable",
      "type": "function"
    },
    {
      "inputs": [],
      "name": "mintInWhitelist",
      "outputs": [
        {
          "internalType": "uint256",
          "name": "",
          "type": "uint256"
        }
      ],
      "stateMutability": "payable",
      "type": "function"
    },
    {
      "inputs": [],
      "name": "contractURI",
      "outputs": [
        {
          "internalType": "string",
          "name": "",
          "type": "string"
        }
      ],
      "stateMutability": "view",
      "type": "function"
    },
    {
      "inputs": [
        {
          "internalType": "string",
          "name": "newContractURI",
          "type": "string"
        }
      ],
      "name": "setContractURI",
      "outputs": [],
      "stateMutability": "nonpayable",
      "type": "function"
    }
  ],
  "bytecode": "0x60806040526000600360146101000a81548160ff021916908360ff160217905550604051806080016040528060508152602001620042d960509139600490805190602001906200005192919062000247565b506040518060800160405280605081526020016200428960509139600590805190602001906200008392919062000247565b503480156200009157600080fd5b5060048054620000a19062000326565b80601f0160208091040260200160405190810160405280929190818152602001828054620000cf9062000326565b8015620001205780601f10620000f45761010080835404028352916020019162000120565b820191906000526020600020905b8154815290600101906020018083116200010257829003601f168201915b505050505062000136816200015d60201b60201c565b50620001576200014b6200017960201b60201c565b6200018160201b60201c565b6200035c565b80600290805190602001906200017592919062000247565b5050565b600033905090565b6000600360009054906101000a900473ffffffffffffffffffffffffffffffffffffffff16905081600360006101000a81548173ffffffffffffffffffffffffffffffffffffffff021916908373ffffffffffffffffffffffffffffffffffffffff1602179055508173ffffffffffffffffffffffffffffffffffffffff168173ffffffffffffffffffffffffffffffffffffffff167f8be0079c531659141344cd1fd0a4f28419497f9722a3daafe3b4186f6b6457e060405160405180910390a35050565b828054620002559062000326565b90600052602060002090601f016020900481019282620002795760008555620002c5565b82601f106200029457805160ff1916838001178555620002c5565b82800160010185558215620002c5579182015b82811115620002c4578251825591602001919060010190620002a7565b5b509050620002d49190620002d8565b5090565b5b80821115620002f3576000816000905550600101620002d9565b5090565b7f4e487b7100000000000000000000000000000000000000000000000000000000600052602260045260246000fd5b600060028204905060018216806200033f57607f821691505b60208210811415620003565762000355620002f7565b5b50919050565b613f1d806200036c6000396000f3fe6080604052600436106101135760003560e01c8063715018a6116100a0578063a22cb46511610064578063a22cb465146103c7578063e8a3d485146103f0578063e985e9c51461041b578063f242432a14610458578063f2fde38b1461048157610113565b8063715018a614610301578063747b8050146103185780637bfb748b146103555780638da5cb5b14610373578063938e3d7b1461039e57610113565b806313af4035116100e757806313af4035146101f85780631b2ef1ca146102215780632eb2c2d61461025e5780633c0a1d09146102875780634e1273f4146102c457610113565b8062fdd58e1461011857806301ffc9a71461015557806302fe5305146101925780630e89341c146101bb575b600080fd5b34801561012457600080fd5b5061013f600480360381019061013a919061242a565b6104aa565b60405161014c9190612479565b60405180910390f35b34801561016157600080fd5b5061017c600480360381019061017791906124ec565b610573565b6040516101899190612534565b60405180910390f35b34801561019e57600080fd5b506101b960048036038101906101b49190612695565b610655565b005b3480156101c757600080fd5b506101e260048036038101906101dd91906126de565b6106eb565b6040516101ef9190612793565b60405180910390f35b34801561020457600080fd5b5061021f600480360381019061021a91906127b5565b61071f565b005b34801561022d57600080fd5b50610248600480360381019061024391906127e2565b6107a7565b6040516102559190612534565b60405180910390f35b34801561026a57600080fd5b506102856004803603810190610280919061298b565b61084a565b005b34801561029357600080fd5b506102ae60048036038101906102a99190612a5a565b6108eb565b6040516102bb9190612534565b60405180910390f35b3480156102d057600080fd5b506102eb60048036038101906102e69190612b5d565b61098f565b6040516102f89190612c93565b60405180910390f35b34801561030d57600080fd5b50610316610aa8565b005b34801561032457600080fd5b5061033f600480360381019061033a91906127b5565b610b30565b60405161034c9190612534565b60405180910390f35b61035d610d73565b60405161036a9190612479565b60405180910390f35b34801561037f57600080fd5b50610388610fc3565b6040516103959190612cc4565b60405180910390f35b3480156103aa57600080fd5b506103c560048036038101906103c09190612695565b610fed565b005b3480156103d357600080fd5b506103ee60048036038101906103e99190612d0b565b611083565b005b3480156103fc57600080fd5b50610405611099565b6040516104129190612793565b60405180910390f35b34801561042757600080fd5b50610442600480360381019061043d9190612d4b565b61112b565b60405161044f9190612534565b60405180910390f35b34801561046457600080fd5b5061047f600480360381019061047a9190612d8b565b6111bf565b005b34801561048d57600080fd5b506104a860048036038101906104a391906127b5565b611260565b005b60008073ffffffffffffffffffffffffffffffffffffffff168373ffffffffffffffffffffffffffffffffffffffff16141561051b576040517f08c379a000000000000000000000000000000000000000000000000000000000815260040161051290612e94565b60405180910390fd5b60008083815260200190815260200160002060008473ffffffffffffffffffffffffffffffffffffffff1673ffffffffffffffffffffffffffffffffffffffff16815260200190815260200160002054905092915050565b60007fd9b67a26000000000000000000000000000000000000000000000000000000007bffffffffffffffffffffffffffffffffffffffffffffffffffffffff1916827bffffffffffffffffffffffffffffffffffffffffffffffffffffffff1916148061063e57507f0e89341c000000000000000000000000000000000000000000000000000000007bffffffffffffffffffffffffffffffffffffffffffffffffffffffff1916827bffffffffffffffffffffffffffffffffffffffffffffffffffffffff1916145b8061064e575061064d82611358565b5b9050919050565b61065d6113c2565b73ffffffffffffffffffffffffffffffffffffffff1661067b610fc3565b73ffffffffffffffffffffffffffffffffffffffff16146106d1576040517f08c379a00000000000000000000000000000000000000000000000000000000081526004016106c890612f00565b60405180910390fd5b80600490805190602001906106e79291906122df565b5050565b606060046106f8836113ca565b6040516020016107099291906130e9565b6040516020818303038152906040529050919050565b6107276113c2565b73ffffffffffffffffffffffffffffffffffffffff16610745610fc3565b73ffffffffffffffffffffffffffffffffffffffff161461079b576040517f08c379a000000000000000000000000000000000000000000000000000000000815260040161079290612f00565b60405180910390fd5b6107a481611260565b50565b60006107b16113c2565b73ffffffffffffffffffffffffffffffffffffffff166107cf610fc3565b73ffffffffffffffffffffffffffffffffffffffff1614610825576040517f08c379a000000000000000000000000000000000000000000000000000000000815260040161081c90612f00565b60405180910390fd5b6108403384846040518060200160405280600081525061152b565b6001905092915050565b6108526113c2565b73ffffffffffffffffffffffffffffffffffffffff168573ffffffffffffffffffffffffffffffffffffffff1614806108985750610897856108926113c2565b61112b565b5b6108d7576040517f08c379a00000000000000000000000000000000000000000000000000000000081526004016108ce90613195565b60405180910390fd5b6108e485858585856116c1565b5050505050565b60006108f56113c2565b73ffffffffffffffffffffffffffffffffffffffff16610913610fc3565b73ffffffffffffffffffffffffffffffffffffffff1614610969576040517f08c379a000000000000000000000000000000000000000000000000000000000815260040161096090612f00565b60405180910390fd5b610985828460016040518060200160405280600081525061152b565b6001905092915050565b606081518351146109d5576040517f08c379a00000000000000000000000000000000000000000000000000000000081526004016109cc90613227565b60405180910390fd5b6000835167ffffffffffffffff8111156109f2576109f161256a565b5b604051908082528060200260200182016040528015610a205781602001602082028036833780820191505090505b50905060005b8451811015610a9d57610a6d858281518110610a4557610a44613247565b5b6020026020010151858381518110610a6057610a5f613247565b5b60200260200101516104aa565b828281518110610a8057610a7f613247565b5b60200260200101818152505080610a96906132a5565b9050610a26565b508091505092915050565b610ab06113c2565b73ffffffffffffffffffffffffffffffffffffffff16610ace610fc3565b73ffffffffffffffffffffffffffffffffffffffff1614610b24576040517f08c379a0000000000000000000000000000000000000000000000000000000008152600401610b1b90612f00565b60405180910390fd5b610b2e60006119d5565b565b6000610b3a6113c2565b73ffffffffffffffffffffffffffffffffffffffff16610b58610fc3565b73ffffffffffffffffffffffffffffffffffffffff1614610bae576040517f08c379a0000000000000000000000000000000000000000000000000000000008152600401610ba590612f00565b60405180910390fd5b600660008373ffffffffffffffffffffffffffffffffffffffff1673ffffffffffffffffffffffffffffffffffffffff16815260200190815260200160002060009054906101000a900460ff1615610c3b576040517f08c379a0000000000000000000000000000000000000000000000000000000008152600401610c329061333a565b60405180910390fd5b6096600360149054906101000a900460ff1660ff1610610c90576040517f08c379a0000000000000000000000000000000000000000000000000000000008152600401610c87906133cc565b60405180910390fd5b6001600660008473ffffffffffffffffffffffffffffffffffffffff1673ffffffffffffffffffffffffffffffffffffffff16815260200190815260200160002060006101000a81548160ff0219169083151502179055506001600360148282829054906101000a900460ff16610d0791906133f9565b92506101000a81548160ff021916908360ff160217905550600660008373ffffffffffffffffffffffffffffffffffffffff1673ffffffffffffffffffffffffffffffffffffffff16815260200190815260200160002060009054906101000a900460ff169050919050565b6000600660003373ffffffffffffffffffffffffffffffffffffffff1673ffffffffffffffffffffffffffffffffffffffff16815260200190815260200160002060009054906101000a900460ff16610e01576040517f08c379a0000000000000000000000000000000000000000000000000000000008152600401610df8906134a2565b60405180910390fd5b662386f26fc10000341015610e4b576040517f08c379a0000000000000000000000000000000000000000000000000000000008152600401610e429061350e565b60405180910390fd5b600080610e56610fc3565b905063622d25f04210158015610e7057506362311a704211155b15610e7e5760019150610ec8565b63623f9af04210158015610e96575063624381604211155b15610ea45760029150610ec7565b636248c7604210158015610ebc575063624cbbe04211155b15610ec657600391505b5b5b6000821415610f0c576040517f08c379a0000000000000000000000000000000000000000000000000000000008152600401610f039061357a565b60405180910390fd5b6000610f1833846104aa565b14610f58576040517f08c379a0000000000000000000000000000000000000000000000000000000008152600401610f4f9061360c565b60405180910390fd5b610f74338360016040518060200160405280600081525061152b565b8073ffffffffffffffffffffffffffffffffffffffff166108fc349081150290604051600060405180830381858888f19350505050158015610fba573d6000803e3d6000fd5b50819250505090565b6000600360009054906101000a900473ffffffffffffffffffffffffffffffffffffffff16905090565b610ff56113c2565b73ffffffffffffffffffffffffffffffffffffffff16611013610fc3565b73ffffffffffffffffffffffffffffffffffffffff1614611069576040517f08c379a000000000000000000000000000000000000000000000000000000000815260040161106090612f00565b60405180910390fd5b806005908051906020019061107f9291906122df565b5050565b61109561108e6113c2565b8383611a9b565b5050565b6060600580546110a890612f4f565b80601f01602080910402602001604051908101604052809291908181526020018280546110d490612f4f565b80156111215780601f106110f657610100808354040283529160200191611121565b820191906000526020600020905b81548152906001019060200180831161110457829003601f168201915b5050505050905090565b6000600160008473ffffffffffffffffffffffffffffffffffffffff1673ffffffffffffffffffffffffffffffffffffffff16815260200190815260200160002060008373ffffffffffffffffffffffffffffffffffffffff1673ffffffffffffffffffffffffffffffffffffffff16815260200190815260200160002060009054906101000a900460ff16905092915050565b6111c76113c2565b73ffffffffffffffffffffffffffffffffffffffff168573ffffffffffffffffffffffffffffffffffffffff16148061120d575061120c856112076113c2565b61112b565b5b61124c576040517f08c379a00000000000000000000000000000000000000000000000000000000081526004016112439061369e565b60405180910390fd5b6112598585858585611c08565b5050505050565b6112686113c2565b73ffffffffffffffffffffffffffffffffffffffff16611286610fc3565b73ffffffffffffffffffffffffffffffffffffffff16146112dc576040517f08c379a00000000000000000000000000000000000000000000000000000000081526004016112d390612f00565b60405180910390fd5b600073ffffffffffffffffffffffffffffffffffffffff168173ffffffffffffffffffffffffffffffffffffffff16141561134c576040517f08c379a000000000000000000000000000000000000000000000000000000000815260040161134390613730565b60405180910390fd5b611355816119d5565b50565b60007f01ffc9a7000000000000000000000000000000000000000000000000000000007bffffffffffffffffffffffffffffffffffffffffffffffffffffffff1916827bffffffffffffffffffffffffffffffffffffffffffffffffffffffff1916149050919050565b600033905090565b60606000821415611412576040518060400160405280600181526020017f30000000000000000000000000000000000000000000000000000000000000008152509050611526565b600082905060005b6000821461144457808061142d906132a5565b915050600a8261143d919061377f565b915061141a565b60008167ffffffffffffffff8111156114605761145f61256a565b5b6040519080825280601f01601f1916602001820160405280156114925781602001600182028036833780820191505090505b5090505b6000851461151f576001826114ab91906137b0565b9150600a856114ba91906137e4565b60306114c69190613815565b60f81b8183815181106114dc576114db613247565b5b60200101907effffffffffffffffffffffffffffffffffffffffffffffffffffffffffffff1916908160001a905350600a85611518919061377f565b9450611496565b8093505050505b919050565b600073ffffffffffffffffffffffffffffffffffffffff168473ffffffffffffffffffffffffffffffffffffffff16141561159b576040517f08c379a0000000000000000000000000000000000000000000000000000000008152600401611592906138dd565b60405180910390fd5b60006115a56113c2565b90506115c6816000876115b788611e8a565b6115c088611e8a565b87611f04565b8260008086815260200190815260200160002060008773ffffffffffffffffffffffffffffffffffffffff1673ffffffffffffffffffffffffffffffffffffffff16815260200190815260200160002060008282546116259190613815565b925050819055508473ffffffffffffffffffffffffffffffffffffffff16600073ffffffffffffffffffffffffffffffffffffffff168273ffffffffffffffffffffffffffffffffffffffff167fc3d58168c5ae7397731d063d5bbf3d657854427343f4c083240f7aacaa2d0f6287876040516116a39291906138fd565b60405180910390a46116ba81600087878787611f0c565b5050505050565b8151835114611705576040517f08c379a00000000000000000000000000000000000000000000000000000000081526004016116fc90613998565b60405180910390fd5b600073ffffffffffffffffffffffffffffffffffffffff168473ffffffffffffffffffffffffffffffffffffffff161415611775576040517f08c379a000000000000000000000000000000000000000000000000000000000815260040161176c90613a2a565b60405180910390fd5b600061177f6113c2565b905061178f818787878787611f04565b60005b84518110156119405760008582815181106117b0576117af613247565b5b6020026020010151905060008583815181106117cf576117ce613247565b5b60200260200101519050600080600084815260200190815260200160002060008b73ffffffffffffffffffffffffffffffffffffffff1673ffffffffffffffffffffffffffffffffffffffff16815260200190815260200160002054905081811015611870576040517f08c379a000000000000000000000000000000000000000000000000000000000815260040161186790613abc565b60405180910390fd5b81810360008085815260200190815260200160002060008c73ffffffffffffffffffffffffffffffffffffffff1673ffffffffffffffffffffffffffffffffffffffff168152602001908152602001600020819055508160008085815260200190815260200160002060008b73ffffffffffffffffffffffffffffffffffffffff1673ffffffffffffffffffffffffffffffffffffffff16815260200190815260200160002060008282546119259190613815565b9250508190555050505080611939906132a5565b9050611792565b508473ffffffffffffffffffffffffffffffffffffffff168673ffffffffffffffffffffffffffffffffffffffff168273ffffffffffffffffffffffffffffffffffffffff167f4a39dc06d4c0dbc64b70af90fd698a233a518aa5d07e595d983b8c0526c8f7fb87876040516119b7929190613adc565b60405180910390a46119cd8187878787876120e4565b505050505050565b6000600360009054906101000a900473ffffffffffffffffffffffffffffffffffffffff16905081600360006101000a81548173ffffffffffffffffffffffffffffffffffffffff021916908373ffffffffffffffffffffffffffffffffffffffff1602179055508173ffffffffffffffffffffffffffffffffffffffff168173ffffffffffffffffffffffffffffffffffffffff167f8be0079c531659141344cd1fd0a4f28419497f9722a3daafe3b4186f6b6457e060405160405180910390a35050565b8173ffffffffffffffffffffffffffffffffffffffff168373ffffffffffffffffffffffffffffffffffffffff161415611b0a576040517f08c379a0000000000000000000000000000000000000000000000000000000008152600401611b0190613b85565b60405180910390fd5b80600160008573ffffffffffffffffffffffffffffffffffffffff1673ffffffffffffffffffffffffffffffffffffffff16815260200190815260200160002060008473ffffffffffffffffffffffffffffffffffffffff1673ffffffffffffffffffffffffffffffffffffffff16815260200190815260200160002060006101000a81548160ff0219169083151502179055508173ffffffffffffffffffffffffffffffffffffffff168373ffffffffffffffffffffffffffffffffffffffff167f17307eab39ab6107e8899845ad3d59bd9653f200f220920489ca2b5937696c3183604051611bfb9190612534565b60405180910390a3505050565b600073ffffffffffffffffffffffffffffffffffffffff168473ffffffffffffffffffffffffffffffffffffffff161415611c78576040517f08c379a0000000000000000000000000000000000000000000000000000000008152600401611c6f90613a2a565b60405180910390fd5b6000611c826113c2565b9050611ca2818787611c9388611e8a565b611c9c88611e8a565b87611f04565b600080600086815260200190815260200160002060008873ffffffffffffffffffffffffffffffffffffffff1673ffffffffffffffffffffffffffffffffffffffff16815260200190815260200160002054905083811015611d39576040517f08c379a0000000000000000000000000000000000000000000000000000000008152600401611d3090613abc565b60405180910390fd5b83810360008087815260200190815260200160002060008973ffffffffffffffffffffffffffffffffffffffff1673ffffffffffffffffffffffffffffffffffffffff168152602001908152602001600020819055508360008087815260200190815260200160002060008873ffffffffffffffffffffffffffffffffffffffff1673ffffffffffffffffffffffffffffffffffffffff1681526020019081526020016000206000828254611dee9190613815565b925050819055508573ffffffffffffffffffffffffffffffffffffffff168773ffffffffffffffffffffffffffffffffffffffff168373ffffffffffffffffffffffffffffffffffffffff167fc3d58168c5ae7397731d063d5bbf3d657854427343f4c083240f7aacaa2d0f628888604051611e6b9291906138fd565b60405180910390a4611e81828888888888611f0c565b50505050505050565b60606000600167ffffffffffffffff811115611ea957611ea861256a565b5b604051908082528060200260200182016040528015611ed75781602001602082028036833780820191505090505b5090508281600081518110611eef57611eee613247565b5b60200260200101818152505080915050919050565b505050505050565b611f2b8473ffffffffffffffffffffffffffffffffffffffff166122bc565b156120dc578373ffffffffffffffffffffffffffffffffffffffff1663f23a6e6187878686866040518663ffffffff1660e01b8152600401611f71959493929190613bfa565b6020604051808303816000875af1925050508015611fad57506040513d601f19601f82011682018060405250810190611faa9190613c69565b60015b61205357611fb9613ca3565b806308c379a014156120165750611fce613cc5565b80611fd95750612018565b806040517f08c379a000000000000000000000000000000000000000000000000000000000815260040161200d9190612793565b60405180910390fd5b505b6040517f08c379a000000000000000000000000000000000000000000000000000000000815260040161204a90613dcd565b60405180910390fd5b63f23a6e6160e01b7bffffffffffffffffffffffffffffffffffffffffffffffffffffffff1916817bffffffffffffffffffffffffffffffffffffffffffffffffffffffff1916146120da576040517f08c379a00000000000000000000000000000000000000000000000000000000081526004016120d190613e5f565b60405180910390fd5b505b505050505050565b6121038473ffffffffffffffffffffffffffffffffffffffff166122bc565b156122b4578373ffffffffffffffffffffffffffffffffffffffff1663bc197c8187878686866040518663ffffffff1660e01b8152600401612149959493929190613e7f565b6020604051808303816000875af192505050801561218557506040513d601f19601f820116820180604052508101906121829190613c69565b60015b61222b57612191613ca3565b806308c379a014156121ee57506121a6613cc5565b806121b157506121f0565b806040517f08c379a00000000000000000000000000000000000000000000000000000000081526004016121e59190612793565b60405180910390fd5b505b6040517f08c379a000000000000000000000000000000000000000000000000000000000815260040161222290613dcd565b60405180910390fd5b63bc197c8160e01b7bffffffffffffffffffffffffffffffffffffffffffffffffffffffff1916817bffffffffffffffffffffffffffffffffffffffffffffffffffffffff1916146122b2576040517f08c379a00000000000000000000000000000000000000000000000000000000081526004016122a990613e5f565b60405180910390fd5b505b505050505050565b6000808273ffffffffffffffffffffffffffffffffffffffff163b119050919050565b8280546122eb90612f4f565b90600052602060002090601f01602090048101928261230d5760008555612354565b82601f1061232657805160ff1916838001178555612354565b82800160010185558215612354579182015b82811115612353578251825591602001919060010190612338565b5b5090506123619190612365565b5090565b5b8082111561237e576000816000905550600101612366565b5090565b6000604051905090565b600080fd5b600080fd5b600073ffffffffffffffffffffffffffffffffffffffff82169050919050565b60006123c182612396565b9050919050565b6123d1816123b6565b81146123dc57600080fd5b50565b6000813590506123ee816123c8565b92915050565b6000819050919050565b612407816123f4565b811461241257600080fd5b50565b600081359050612424816123fe565b92915050565b600080604083850312156124415761244061238c565b5b600061244f858286016123df565b925050602061246085828601612415565b9150509250929050565b612473816123f4565b82525050565b600060208201905061248e600083018461246a565b92915050565b60007fffffffff0000000000000000000000000000000000000000000000000000000082169050919050565b6124c981612494565b81146124d457600080fd5b50565b6000813590506124e6816124c0565b92915050565b6000602082840312156125025761250161238c565b5b6000612510848285016124d7565b91505092915050565b60008115159050919050565b61252e81612519565b82525050565b60006020820190506125496000830184612525565b92915050565b600080fd5b600080fd5b6000601f19601f8301169050919050565b7f4e487b7100000000000000000000000000000000000000000000000000000000600052604160045260246000fd5b6125a282612559565b810181811067ffffffffffffffff821117156125c1576125c061256a565b5b80604052505050565b60006125d4612382565b90506125e08282612599565b919050565b600067ffffffffffffffff821115612600576125ff61256a565b5b61260982612559565b9050602081019050919050565b82818337600083830152505050565b6000612638612633846125e5565b6125ca565b90508281526020810184848401111561265457612653612554565b5b61265f848285612616565b509392505050565b600082601f83011261267c5761267b61254f565b5b813561268c848260208601612625565b91505092915050565b6000602082840312156126ab576126aa61238c565b5b600082013567ffffffffffffffff8111156126c9576126c8612391565b5b6126d584828501612667565b91505092915050565b6000602082840312156126f4576126f361238c565b5b600061270284828501612415565b91505092915050565b600081519050919050565b600082825260208201905092915050565b60005b8381101561274557808201518184015260208101905061272a565b83811115612754576000848401525b50505050565b60006127658261270b565b61276f8185612716565b935061277f818560208601612727565b61278881612559565b840191505092915050565b600060208201905081810360008301526127ad818461275a565b905092915050565b6000602082840312156127cb576127ca61238c565b5b60006127d9848285016123df565b91505092915050565b600080604083850312156127f9576127f861238c565b5b600061280785828601612415565b925050602061281885828601612415565b9150509250929050565b600067ffffffffffffffff82111561283d5761283c61256a565b5b602082029050602081019050919050565b600080fd5b600061286661286184612822565b6125ca565b905080838252602082019050602084028301858111156128895761288861284e565b5b835b818110156128b2578061289e8882612415565b84526020840193505060208101905061288b565b5050509392505050565b600082601f8301126128d1576128d061254f565b5b81356128e1848260208601612853565b91505092915050565b600067ffffffffffffffff8211156129055761290461256a565b5b61290e82612559565b9050602081019050919050565b600061292e612929846128ea565b6125ca565b90508281526020810184848401111561294a57612949612554565b5b612955848285612616565b509392505050565b600082601f8301126129725761297161254f565b5b813561298284826020860161291b565b91505092915050565b600080600080600060a086880312156129a7576129a661238c565b5b60006129b5888289016123df565b95505060206129c6888289016123df565b945050604086013567ffffffffffffffff8111156129e7576129e6612391565b5b6129f3888289016128bc565b935050606086013567ffffffffffffffff811115612a1457612a13612391565b5b612a20888289016128bc565b925050608086013567ffffffffffffffff811115612a4157612a40612391565b5b612a4d8882890161295d565b9150509295509295909350565b60008060408385031215612a7157612a7061238c565b5b6000612a7f85828601612415565b9250506020612a90858286016123df565b9150509250929050565b600067ffffffffffffffff821115612ab557612ab461256a565b5b602082029050602081019050919050565b6000612ad9612ad484612a9a565b6125ca565b90508083825260208201905060208402830185811115612afc57612afb61284e565b5b835b81811015612b255780612b1188826123df565b845260208401935050602081019050612afe565b5050509392505050565b600082601f830112612b4457612b4361254f565b5b8135612b54848260208601612ac6565b91505092915050565b60008060408385031215612b7457612b7361238c565b5b600083013567ffffffffffffffff811115612b9257612b91612391565b5b612b9e85828601612b2f565b925050602083013567ffffffffffffffff811115612bbf57612bbe612391565b5b612bcb858286016128bc565b9150509250929050565b600081519050919050565b600082825260208201905092915050565b6000819050602082019050919050565b612c0a816123f4565b82525050565b6000612c1c8383612c01565b60208301905092915050565b6000602082019050919050565b6000612c4082612bd5565b612c4a8185612be0565b9350612c5583612bf1565b8060005b83811015612c86578151612c6d8882612c10565b9750612c7883612c28565b925050600181019050612c59565b5085935050505092915050565b60006020820190508181036000830152612cad8184612c35565b905092915050565b612cbe816123b6565b82525050565b6000602082019050612cd96000830184612cb5565b92915050565b612ce881612519565b8114612cf357600080fd5b50565b600081359050612d0581612cdf565b92915050565b60008060408385031215612d2257612d2161238c565b5b6000612d30858286016123df565b9250506020612d4185828601612cf6565b9150509250929050565b60008060408385031215612d6257612d6161238c565b5b6000612d70858286016123df565b9250506020612d81858286016123df565b9150509250929050565b600080600080600060a08688031215612da757612da661238c565b5b6000612db5888289016123df565b9550506020612dc6888289016123df565b9450506040612dd788828901612415565b9350506060612de888828901612415565b925050608086013567ffffffffffffffff811115612e0957612e08612391565b5b612e158882890161295d565b9150509295509295909350565b7f455243313135353a2062616c616e636520717565727920666f7220746865207a60008201527f65726f2061646472657373000000000000000000000000000000000000000000602082015250565b6000612e7e602b83612716565b9150612e8982612e22565b604082019050919050565b60006020820190508181036000830152612ead81612e71565b9050919050565b7f4f776e61626c653a2063616c6c6572206973206e6f7420746865206f776e6572600082015250565b6000612eea602083612716565b9150612ef582612eb4565b602082019050919050565b60006020820190508181036000830152612f1981612edd565b9050919050565b7f4e487b7100000000000000000000000000000000000000000000000000000000600052602260045260246000fd5b60006002820490506001821680612f6757607f821691505b60208210811415612f7b57612f7a612f20565b5b50919050565b600081905092915050565b60008190508160005260206000209050919050565b60008154612fae81612f4f565b612fb88186612f81565b94506001821660008114612fd35760018114612fe457613017565b60ff19831686528186019350613017565b612fed85612f8c565b60005b8381101561300f57815481890152600182019150602081019050612ff0565b838801955050505b50505092915050565b7f2f00000000000000000000000000000000000000000000000000000000000000600082015250565b6000613056600183612f81565b915061306182613020565b600182019050919050565b60006130778261270b565b6130818185612f81565b9350613091818560208601612727565b80840191505092915050565b7f2e6a736f6e000000000000000000000000000000000000000000000000000000600082015250565b60006130d3600583612f81565b91506130de8261309d565b600582019050919050565b60006130f58285612fa1565b915061310082613049565b915061310c828461306c565b9150613117826130c6565b91508190509392505050565b7f455243313135353a207472616e736665722063616c6c6572206973206e6f742060008201527f6f776e6572206e6f7220617070726f7665640000000000000000000000000000602082015250565b600061317f603283612716565b915061318a82613123565b604082019050919050565b600060208201905081810360008301526131ae81613172565b9050919050565b7f455243313135353a206163636f756e747320616e6420696473206c656e67746860008201527f206d69736d617463680000000000000000000000000000000000000000000000602082015250565b6000613211602983612716565b915061321c826131b5565b604082019050919050565b6000602082019050818103600083015261324081613204565b9050919050565b7f4e487b7100000000000000000000000000000000000000000000000000000000600052603260045260246000fd5b7f4e487b7100000000000000000000000000000000000000000000000000000000600052601160045260246000fd5b60006132b0826123f4565b91507fffffffffffffffffffffffffffffffffffffffffffffffffffffffffffffffff8214156132e3576132e2613276565b5b600182019050919050565b7f5573657220697320616c72656164792077686974656c69737465640000000000600082015250565b6000613324601b83612716565b915061332f826132ee565b602082019050919050565b6000602082019050818103600083015261335381613317565b9050919050565b7f4d6178696d756d206e756d626572206f662075736572732077686974656c697360008201527f7465640000000000000000000000000000000000000000000000000000000000602082015250565b60006133b6602383612716565b91506133c18261335a565b604082019050919050565b600060208201905081810360008301526133e5816133a9565b9050919050565b600060ff82169050919050565b6000613404826133ec565b915061340f836133ec565b92508260ff0382111561342557613424613276565b5b828201905092915050565b7f596f7520646f206e6f742068617665207065726d697373696f6e7320746f206560008201527f78656375746520746869732066756e6374696f6e000000000000000000000000602082015250565b600061348c603483612716565b915061349782613430565b604082019050919050565b600060208201905081810360008301526134bb8161347f565b9050919050565b7f496e74726f647563652074686520636f72726563742070726963650000000000600082015250565b60006134f8601b83612716565b9150613503826134c2565b602082019050919050565b60006020820190508181036000830152613527816134eb565b9050919050565b7f4f7574206f662064617465000000000000000000000000000000000000000000600082015250565b6000613564600b83612716565b915061356f8261352e565b602082019050919050565b6000602082019050818103600083015261359381613557565b9050919050565b7f4d6178696d756d206f6620746f6b656e73206d696e746564206f6e207072657360008201527f616c650000000000000000000000000000000000000000000000000000000000602082015250565b60006135f6602383612716565b91506136018261359a565b604082019050919050565b60006020820190508181036000830152613625816135e9565b9050919050565b7f455243313135353a2063616c6c6572206973206e6f74206f776e6572206e6f7260008201527f20617070726f7665640000000000000000000000000000000000000000000000602082015250565b6000613688602983612716565b91506136938261362c565b604082019050919050565b600060208201905081810360008301526136b78161367b565b9050919050565b7f4f776e61626c653a206e6577206f776e657220697320746865207a65726f206160008201527f6464726573730000000000000000000000000000000000000000000000000000602082015250565b600061371a602683612716565b9150613725826136be565b604082019050919050565b600060208201905081810360008301526137498161370d565b9050919050565b7f4e487b7100000000000000000000000000000000000000000000000000000000600052601260045260246000fd5b600061378a826123f4565b9150613795836123f4565b9250826137a5576137a4613750565b5b828204905092915050565b60006137bb826123f4565b91506137c6836123f4565b9250828210156137d9576137d8613276565b5b828203905092915050565b60006137ef826123f4565b91506137fa836123f4565b92508261380a57613809613750565b5b828206905092915050565b6000613820826123f4565b915061382b836123f4565b9250827fffffffffffffffffffffffffffffffffffffffffffffffffffffffffffffffff038211156138605761385f613276565b5b828201905092915050565b7f455243313135353a206d696e7420746f20746865207a65726f2061646472657360008201527f7300000000000000000000000000000000000000000000000000000000000000602082015250565b60006138c7602183612716565b91506138d28261386b565b604082019050919050565b600060208201905081810360008301526138f6816138ba565b9050919050565b6000604082019050613912600083018561246a565b61391f602083018461246a565b9392505050565b7f455243313135353a2069647320616e6420616d6f756e7473206c656e6774682060008201527f6d69736d61746368000000000000000000000000000000000000000000000000602082015250565b6000613982602883612716565b915061398d82613926565b604082019050919050565b600060208201905081810360008301526139b181613975565b9050919050565b7f455243313135353a207472616e7366657220746f20746865207a65726f20616460008201527f6472657373000000000000000000000000000000000000000000000000000000602082015250565b6000613a14602583612716565b9150613a1f826139b8565b604082019050919050565b60006020820190508181036000830152613a4381613a07565b9050919050565b7f455243313135353a20696e73756666696369656e742062616c616e636520666f60008201527f72207472616e7366657200000000000000000000000000000000000000000000602082015250565b6000613aa6602a83612716565b9150613ab182613a4a565b604082019050919050565b60006020820190508181036000830152613ad581613a99565b9050919050565b60006040820190508181036000830152613af68185612c35565b90508181036020830152613b0a8184612c35565b90509392505050565b7f455243313135353a2073657474696e6720617070726f76616c2073746174757360008201527f20666f722073656c660000000000000000000000000000000000000000000000602082015250565b6000613b6f602983612716565b9150613b7a82613b13565b604082019050919050565b60006020820190508181036000830152613b9e81613b62565b9050919050565b600081519050919050565b600082825260208201905092915050565b6000613bcc82613ba5565b613bd68185613bb0565b9350613be6818560208601612727565b613bef81612559565b840191505092915050565b600060a082019050613c0f6000830188612cb5565b613c1c6020830187612cb5565b613c29604083018661246a565b613c36606083018561246a565b8181036080830152613c488184613bc1565b90509695505050505050565b600081519050613c63816124c0565b92915050565b600060208284031215613c7f57613c7e61238c565b5b6000613c8d84828501613c54565b91505092915050565b60008160e01c9050919050565b600060033d1115613cc25760046000803e613cbf600051613c96565b90505b90565b600060443d1015613cd557613d58565b613cdd612382565b60043d036004823e80513d602482011167ffffffffffffffff82111715613d05575050613d58565b808201805167ffffffffffffffff811115613d235750505050613d58565b80602083010160043d038501811115613d40575050505050613d58565b613d4f82602001850186612599565b82955050505050505b90565b7f455243313135353a207472616e7366657220746f206e6f6e204552433131353560008201527f526563656976657220696d706c656d656e746572000000000000000000000000602082015250565b6000613db7603483612716565b9150613dc282613d5b565b604082019050919050565b60006020820190508181036000830152613de681613daa565b9050919050565b7f455243313135353a204552433131353552656365697665722072656a6563746560008201527f6420746f6b656e73000000000000000000000000000000000000000000000000602082015250565b6000613e49602883612716565b9150613e5482613ded565b604082019050919050565b60006020820190508181036000830152613e7881613e3c565b9050919050565b600060a082019050613e946000830188612cb5565b613ea16020830187612cb5565b8181036040830152613eb38186612c35565b90508181036060830152613ec78185612c35565b90508181036080830152613edb8184613bc1565b9050969550505050505056fea2646970667358221220c71cd1464640ec087f6dfc14272617d687b8133cc8fa39df7cafa8827b8ba6fb64736f6c634300080a003368747470733a2f2f676174657761792e70696e6174612e636c6f75642f697066732f516d574a6a4a505354627834416d354d3439627567714a4165723366785243546e794b5447334e5245374551737168747470733a2f2f676174657761792e70696e6174612e636c6f75642f697066732f516d546765656365477958353350476451433146734b576477466d4248774231474e567837437063686e64727844",
  "immutableReferences": {},
  "source": "// SPDX-License-Identifier: MIT\r\npragma solidity ^0.8.0;\r\n\r\nimport \"../../node_modules/@openzeppelin/contracts/token/ERC1155/ERC1155.sol\";\r\nimport \"../../node_modules/@openzeppelin/contracts/utils/Strings.sol\";\r\nimport \"../../node_modules/@openzeppelin//contracts/access/Ownable.sol\";\r\n\r\ncontract collection is ERC1155, Ownable {\r\n\r\n\r\n    uint8 private usersWhitelisted = 0;\r\n    string private _uri = \"https://gateway.pinata.cloud/ipfs/QmTgeeceGyX53PGdQC1FsKWdwFmBHwB1GNVx7CpchndrxD\";\r\n    string private _contractURI = \"https://gateway.pinata.cloud/ipfs/QmWJjJPSTbx4Am5M49bugqJAer3fxRCTnyKTG3NRE7EQsq\";\r\n\r\n    mapping(address => bool) _isUserOnWhitelist;\r\n\r\n\r\n    modifier whitelistHolder(){\r\n        require(_isUserOnWhitelist[msg.sender], \"You do not have permissions to execute this function\");\r\n        _;\r\n    }\r\n    \r\n    constructor() ERC1155(_uri){ } \r\n\r\n    function setOwner(address newOwner) public onlyOwner() {\r\n        transferOwnership(newOwner);\r\n    }\r\n\r\n    //mint token\r\n    function mint(uint256 tokenId, uint256 amount) public onlyOwner() returns(bool) {\r\n        _mint(msg.sender, tokenId, amount, \"\");\r\n        return true;\r\n    }\r\n\r\n    function giveaway(uint256 tokenId, address holder) public onlyOwner() returns(bool) {\r\n        _mint(holder, tokenId, 1, \"\");\r\n        return true;\r\n    }\r\n\r\n    function uri(uint256 tokenId) public view virtual override returns (string memory){\r\n        return(string(abi.encodePacked(_uri,\"/\", Strings.toString(tokenId),\".json\")));\r\n    }\r\n\r\n    function setURI(string memory tokenURI) public onlyOwner() {\r\n        _uri = tokenURI;\r\n    }\r\n\r\n    function addUserToWhitelist(address holder) public onlyOwner() returns(bool){\r\n        require(!_isUserOnWhitelist[holder], \"User is already whitelisted\");\r\n        require(usersWhitelisted < 150, \"Maximum number of users whitelisted\");\r\n\r\n        _isUserOnWhitelist[holder] = true;\r\n        usersWhitelisted += 1;\r\n\r\n        return _isUserOnWhitelist[holder];\r\n    }\r\n\r\n    function mintInWhitelist() public whitelistHolder() payable returns(uint) {\r\n        require(msg.value >= 0.01 ether, \"Introduce the correct price\"); \r\n\r\n        uint tokenId = 0;\r\n        address payable to = payable(owner());\r\n\r\n        if(block.timestamp >= 1647126000 && block.timestamp <= 1647385200){ // Date between 13/03 and 15/03\r\n            tokenId = 1;\r\n        } else if(block.timestamp >= 1648335600 && block.timestamp <= 1648591200){ // Date between 27/03 and 30/03\r\n            tokenId = 2;\r\n        } else if(block.timestamp >= 1648936800 && block.timestamp <= 1649196000){ //Date between 03/04 and 06/04\r\n            tokenId = 3;\r\n        }\r\n\r\n        require(tokenId != 0, \"Out of date\");\r\n        require(balanceOf(msg.sender, tokenId) == 0, \"Maximum of tokens minted on presale\");\r\n        \r\n        _mint(msg.sender, tokenId, 1, \"\");       \r\n        \r\n        to.transfer(msg.value); //Send the part to the contract owner\r\n       \r\n        return tokenId;\r\n    }\r\n\r\n    function contractURI() public view returns(string memory){\r\n        return _contractURI;\r\n    }\r\n\r\n    function setContractURI(string memory newContractURI) public onlyOwner() {\r\n        _contractURI = newContractURI;\r\n    }\r\n\r\n}",
  "sourcePath": "D:\\Documentos\\Trabajos\\AnimalesProject\\src\\contracts\\AnimalesCollection.sol",
  "compiler": {
    "name": "solc",
    "version": "0.8.10+commit.fc410830.Emscripten.clang"
  },
  "schemaVersion": "3.4.3",
  "updatedAt": "2022-03-16T15:44:18.872Z",
  "devdoc": {
    "kind": "dev",
    "methods": {
      "balanceOf(address,uint256)": {
        "details": "See {IERC1155-balanceOf}. Requirements: - `account` cannot be the zero address."
      },
      "balanceOfBatch(address[],uint256[])": {
        "details": "See {IERC1155-balanceOfBatch}. Requirements: - `accounts` and `ids` must have the same length."
      },
      "isApprovedForAll(address,address)": {
        "details": "See {IERC1155-isApprovedForAll}."
      },
      "owner()": {
        "details": "Returns the address of the current owner."
      },
      "renounceOwnership()": {
        "details": "Leaves the contract without owner. It will not be possible to call `onlyOwner` functions anymore. Can only be called by the current owner. NOTE: Renouncing ownership will leave the contract without an owner, thereby removing any functionality that is only available to the owner."
      },
      "safeBatchTransferFrom(address,address,uint256[],uint256[],bytes)": {
        "details": "See {IERC1155-safeBatchTransferFrom}."
      },
      "safeTransferFrom(address,address,uint256,uint256,bytes)": {
        "details": "See {IERC1155-safeTransferFrom}."
      },
      "setApprovalForAll(address,bool)": {
        "details": "See {IERC1155-setApprovalForAll}."
      },
      "supportsInterface(bytes4)": {
        "details": "See {IERC165-supportsInterface}."
      },
      "transferOwnership(address)": {
        "details": "Transfers ownership of the contract to a new account (`newOwner`). Can only be called by the current owner."
      }
    },
    "version": 1
  },
  "userdoc": {
    "kind": "user",
    "methods": {},
    "version": 1
  }
}