{
  "contractName": "collection",
  "abi": [
    {
      "inputs": [],
      "stateMutability": "nonpayable",
      "type": "constructor"
    },
    {
      "anonymous": false,
      "inputs": [
        {
          "indexed": true,
          "internalType": "address",
          "name": "account",
          "type": "address"
        },
        {
          "indexed": true,
          "internalType": "address",
          "name": "operator",
          "type": "address"
        },
        {
          "indexed": false,
          "internalType": "bool",
          "name": "approved",
          "type": "bool"
        }
      ],
      "name": "ApprovalForAll",
      "type": "event"
    },
    {
      "anonymous": false,
      "inputs": [
        {
          "indexed": true,
          "internalType": "address",
          "name": "operator",
          "type": "address"
        },
        {
          "indexed": true,
          "internalType": "address",
          "name": "from",
          "type": "address"
        },
        {
          "indexed": true,
          "internalType": "address",
          "name": "to",
          "type": "address"
        },
        {
          "indexed": false,
          "internalType": "uint256[]",
          "name": "ids",
          "type": "uint256[]"
        },
        {
          "indexed": false,
          "internalType": "uint256[]",
          "name": "values",
          "type": "uint256[]"
        }
      ],
      "name": "TransferBatch",
      "type": "event"
    },
    {
      "anonymous": false,
      "inputs": [
        {
          "indexed": true,
          "internalType": "address",
          "name": "operator",
          "type": "address"
        },
        {
          "indexed": true,
          "internalType": "address",
          "name": "from",
          "type": "address"
        },
        {
          "indexed": true,
          "internalType": "address",
          "name": "to",
          "type": "address"
        },
        {
          "indexed": false,
          "internalType": "uint256",
          "name": "id",
          "type": "uint256"
        },
        {
          "indexed": false,
          "internalType": "uint256",
          "name": "value",
          "type": "uint256"
        }
      ],
      "name": "TransferSingle",
      "type": "event"
    },
    {
      "anonymous": false,
      "inputs": [
        {
          "indexed": false,
          "internalType": "string",
          "name": "value",
          "type": "string"
        },
        {
          "indexed": true,
          "internalType": "uint256",
          "name": "id",
          "type": "uint256"
        }
      ],
      "name": "URI",
      "type": "event"
    },
    {
      "inputs": [
        {
          "internalType": "address",
          "name": "account",
          "type": "address"
        },
        {
          "internalType": "uint256",
          "name": "id",
          "type": "uint256"
        }
      ],
      "name": "balanceOf",
      "outputs": [
        {
          "internalType": "uint256",
          "name": "",
          "type": "uint256"
        }
      ],
      "stateMutability": "view",
      "type": "function",
      "constant": true
    },
    {
      "inputs": [
        {
          "internalType": "address[]",
          "name": "accounts",
          "type": "address[]"
        },
        {
          "internalType": "uint256[]",
          "name": "ids",
          "type": "uint256[]"
        }
      ],
      "name": "balanceOfBatch",
      "outputs": [
        {
          "internalType": "uint256[]",
          "name": "",
          "type": "uint256[]"
        }
      ],
      "stateMutability": "view",
      "type": "function",
      "constant": true
    },
    {
      "inputs": [
        {
          "internalType": "address",
          "name": "account",
          "type": "address"
        },
        {
          "internalType": "address",
          "name": "operator",
          "type": "address"
        }
      ],
      "name": "isApprovedForAll",
      "outputs": [
        {
          "internalType": "bool",
          "name": "",
          "type": "bool"
        }
      ],
      "stateMutability": "view",
      "type": "function",
      "constant": true
    },
    {
      "inputs": [
        {
          "internalType": "address",
          "name": "from",
          "type": "address"
        },
        {
          "internalType": "address",
          "name": "to",
          "type": "address"
        },
        {
          "internalType": "uint256[]",
          "name": "ids",
          "type": "uint256[]"
        },
        {
          "internalType": "uint256[]",
          "name": "amounts",
          "type": "uint256[]"
        },
        {
          "internalType": "bytes",
          "name": "data",
          "type": "bytes"
        }
      ],
      "name": "safeBatchTransferFrom",
      "outputs": [],
      "stateMutability": "nonpayable",
      "type": "function"
    },
    {
      "inputs": [
        {
          "internalType": "address",
          "name": "from",
          "type": "address"
        },
        {
          "internalType": "address",
          "name": "to",
          "type": "address"
        },
        {
          "internalType": "uint256",
          "name": "id",
          "type": "uint256"
        },
        {
          "internalType": "uint256",
          "name": "amount",
          "type": "uint256"
        },
        {
          "internalType": "bytes",
          "name": "data",
          "type": "bytes"
        }
      ],
      "name": "safeTransferFrom",
      "outputs": [],
      "stateMutability": "nonpayable",
      "type": "function"
    },
    {
      "inputs": [
        {
          "internalType": "address",
          "name": "operator",
          "type": "address"
        },
        {
          "internalType": "bool",
          "name": "approved",
          "type": "bool"
        }
      ],
      "name": "setApprovalForAll",
      "outputs": [],
      "stateMutability": "nonpayable",
      "type": "function"
    },
    {
      "inputs": [
        {
          "internalType": "bytes4",
          "name": "interfaceId",
          "type": "bytes4"
        }
      ],
      "name": "supportsInterface",
      "outputs": [
        {
          "internalType": "bool",
          "name": "",
          "type": "bool"
        }
      ],
      "stateMutability": "view",
      "type": "function",
      "constant": true
    },
    {
      "inputs": [
        {
          "internalType": "uint256",
          "name": "tokenId",
          "type": "uint256"
        },
        {
          "internalType": "uint256",
          "name": "amount",
          "type": "uint256"
        }
      ],
      "name": "mint",
      "outputs": [
        {
          "internalType": "bool",
          "name": "",
          "type": "bool"
        }
      ],
      "stateMutability": "nonpayable",
      "type": "function"
    },
    {
      "inputs": [
        {
          "internalType": "uint256",
          "name": "tokenId",
          "type": "uint256"
        },
        {
          "internalType": "address",
          "name": "holder",
          "type": "address"
        }
      ],
      "name": "giveaway",
      "outputs": [
        {
          "internalType": "bool",
          "name": "",
          "type": "bool"
        }
      ],
      "stateMutability": "nonpayable",
      "type": "function"
    },
    {
      "inputs": [
        {
          "internalType": "uint256",
          "name": "tokenId",
          "type": "uint256"
        }
      ],
      "name": "uri",
      "outputs": [
        {
          "internalType": "string",
          "name": "",
          "type": "string"
        }
      ],
      "stateMutability": "view",
      "type": "function",
      "constant": true
    },
    {
      "inputs": [
        {
          "internalType": "string",
          "name": "tokenURI",
          "type": "string"
        }
      ],
      "name": "setURI",
      "outputs": [],
      "stateMutability": "nonpayable",
      "type": "function"
    },
    {
      "inputs": [
        {
          "internalType": "address",
          "name": "holder",
          "type": "address"
        }
      ],
      "name": "addUserToWhitelist",
      "outputs": [
        {
          "internalType": "bool",
          "name": "",
          "type": "bool"
        }
      ],
      "stateMutability": "nonpayable",
      "type": "function"
    },
    {
      "inputs": [],
      "name": "mintInWhitelist",
      "outputs": [
        {
          "internalType": "uint256",
          "name": "",
          "type": "uint256"
        }
      ],
      "stateMutability": "payable",
      "type": "function",
      "payable": true
    },
    {
      "inputs": [],
      "name": "contractURI",
      "outputs": [
        {
          "internalType": "string",
          "name": "",
          "type": "string"
        }
      ],
      "stateMutability": "pure",
      "type": "function",
      "constant": true
    }
  ],
  "bytecode": "0x60806040526000600360146101000a81548160ff021916908360ff16021790555060405180608001604052806043815260200162003e0b60439139600490805190602001906200005192919062000188565b50606460023462000063919062000271565b6200006f919062000301565b6005553480156200007f57600080fd5b50600480546200008f9062000368565b80601f0160208091040260200160405190810160405280929190818152602001828054620000bd9062000368565b80156200010e5780601f10620000e2576101008083540402835291602001916200010e565b820191906000526020600020905b815481529060010190602001808311620000f057829003601f168201915b505050505062000124816200016c60201b60201c565b5033600360006101000a81548173ffffffffffffffffffffffffffffffffffffffff021916908373ffffffffffffffffffffffffffffffffffffffff1602179055506200039e565b80600290805190602001906200018492919062000188565b5050565b828054620001969062000368565b90600052602060002090601f016020900481019282620001ba576000855562000206565b82601f10620001d557805160ff191683800117855562000206565b8280016001018555821562000206579182015b8281111562000205578251825591602001919060010190620001e8565b5b50905062000215919062000219565b5090565b5b80821115620002345760008160009055506001016200021a565b5090565b6000819050919050565b7f4e487b7100000000000000000000000000000000000000000000000000000000600052601160045260246000fd5b60006200027e8262000238565b91506200028b8362000238565b9250817fffffffffffffffffffffffffffffffffffffffffffffffffffffffffffffffff0483118215151615620002c757620002c662000242565b5b828202905092915050565b7f4e487b7100000000000000000000000000000000000000000000000000000000600052601260045260246000fd5b60006200030e8262000238565b91506200031b8362000238565b9250826200032e576200032d620002d2565b5b828204905092915050565b7f4e487b7100000000000000000000000000000000000000000000000000000000600052602260045260246000fd5b600060028204905060018216806200038157607f821691505b6020821081141562000398576200039762000339565b5b50919050565b613a5d80620003ae6000396000f3fe6080604052600436106100dc5760003560e01c80634e1273f41161007f578063a22cb46511610059578063a22cb465146102fc578063e8a3d48514610325578063e985e9c514610350578063f242432a1461038d576100dc565b80634e1273f414610264578063747b8050146102a15780637bfb748b146102de576100dc565b80630e89341c116100bb5780630e89341c146101845780631b2ef1ca146101c15780632eb2c2d6146101fe5780633c0a1d0914610227576100dc565b8062fdd58e146100e157806301ffc9a71461011e57806302fe53051461015b575b600080fd5b3480156100ed57600080fd5b5061010860048036038101906101039190611fa1565b6103b6565b6040516101159190611ff0565b60405180910390f35b34801561012a57600080fd5b5061014560048036038101906101409190612063565b61047f565b60405161015291906120ab565b60405180910390f35b34801561016757600080fd5b50610182600480360381019061017d919061220c565b610561565b005b34801561019057600080fd5b506101ab60048036038101906101a69190612255565b61060b565b6040516101b8919061230a565b60405180910390f35b3480156101cd57600080fd5b506101e860048036038101906101e3919061232c565b61063f565b6040516101f591906120ab565b60405180910390f35b34801561020a57600080fd5b50610225600480360381019061022091906124d5565b6106f6565b005b34801561023357600080fd5b5061024e600480360381019061024991906125a4565b610797565b60405161025b91906120ab565b60405180910390f35b34801561027057600080fd5b5061028b600480360381019061028691906126a7565b61084f565b60405161029891906127dd565b60405180910390f35b3480156102ad57600080fd5b506102c860048036038101906102c391906127ff565b610968565b6040516102d591906120ab565b60405180910390f35b6102e6610bbf565b6040516102f39190611ff0565b60405180910390f35b34801561030857600080fd5b50610323600480360381019061031e9190612858565b610e2a565b005b34801561033157600080fd5b5061033a610e40565b604051610347919061230a565b60405180910390f35b34801561035c57600080fd5b5061037760048036038101906103729190612898565b610e60565b60405161038491906120ab565b60405180910390f35b34801561039957600080fd5b506103b460048036038101906103af91906128d8565b610ef4565b005b60008073ffffffffffffffffffffffffffffffffffffffff168373ffffffffffffffffffffffffffffffffffffffff161415610427576040517f08c379a000000000000000000000000000000000000000000000000000000000815260040161041e906129e1565b60405180910390fd5b60008083815260200190815260200160002060008473ffffffffffffffffffffffffffffffffffffffff1673ffffffffffffffffffffffffffffffffffffffff16815260200190815260200160002054905092915050565b60007fd9b67a26000000000000000000000000000000000000000000000000000000007bffffffffffffffffffffffffffffffffffffffffffffffffffffffff1916827bffffffffffffffffffffffffffffffffffffffffffffffffffffffff1916148061054a57507f0e89341c000000000000000000000000000000000000000000000000000000007bffffffffffffffffffffffffffffffffffffffffffffffffffffffff1916827bffffffffffffffffffffffffffffffffffffffffffffffffffffffff1916145b8061055a575061055982610f95565b5b9050919050565b600360009054906101000a900473ffffffffffffffffffffffffffffffffffffffff1673ffffffffffffffffffffffffffffffffffffffff163373ffffffffffffffffffffffffffffffffffffffff16146105f1576040517f08c379a00000000000000000000000000000000000000000000000000000000081526004016105e890612a73565b60405180910390fd5b8060049080519060200190610607929190611e56565b5050565b6060600461061883610fff565b604051602001610629929190612c5c565b6040516020818303038152906040529050919050565b6000600360009054906101000a900473ffffffffffffffffffffffffffffffffffffffff1673ffffffffffffffffffffffffffffffffffffffff163373ffffffffffffffffffffffffffffffffffffffff16146106d1576040517f08c379a00000000000000000000000000000000000000000000000000000000081526004016106c890612a73565b60405180910390fd5b6106ec33848460405180602001604052806000815250611160565b6001905092915050565b6106fe6112f6565b73ffffffffffffffffffffffffffffffffffffffff168573ffffffffffffffffffffffffffffffffffffffff16148061074457506107438561073e6112f6565b610e60565b5b610783576040517f08c379a000000000000000000000000000000000000000000000000000000000815260040161077a90612d08565b60405180910390fd5b61079085858585856112fe565b5050505050565b6000600360009054906101000a900473ffffffffffffffffffffffffffffffffffffffff1673ffffffffffffffffffffffffffffffffffffffff163373ffffffffffffffffffffffffffffffffffffffff1614610829576040517f08c379a000000000000000000000000000000000000000000000000000000000815260040161082090612a73565b60405180910390fd5b6108458284600160405180602001604052806000815250611160565b6001905092915050565b60608151835114610895576040517f08c379a000000000000000000000000000000000000000000000000000000000815260040161088c90612d9a565b60405180910390fd5b6000835167ffffffffffffffff8111156108b2576108b16120e1565b5b6040519080825280602002602001820160405280156108e05781602001602082028036833780820191505090505b50905060005b845181101561095d5761092d85828151811061090557610904612dba565b5b60200260200101518583815181106109205761091f612dba565b5b60200260200101516103b6565b8282815181106109405761093f612dba565b5b6020026020010181815250508061095690612e18565b90506108e6565b508091505092915050565b6000600360009054906101000a900473ffffffffffffffffffffffffffffffffffffffff1673ffffffffffffffffffffffffffffffffffffffff163373ffffffffffffffffffffffffffffffffffffffff16146109fa576040517f08c379a00000000000000000000000000000000000000000000000000000000081526004016109f190612a73565b60405180910390fd5b600760008373ffffffffffffffffffffffffffffffffffffffff1673ffffffffffffffffffffffffffffffffffffffff16815260200190815260200160002060009054906101000a900460ff1615610a87576040517f08c379a0000000000000000000000000000000000000000000000000000000008152600401610a7e90612ead565b60405180910390fd5b6096600360149054906101000a900460ff1660ff1610610adc576040517f08c379a0000000000000000000000000000000000000000000000000000000008152600401610ad390612f3f565b60405180910390fd5b6001600760008473ffffffffffffffffffffffffffffffffffffffff1673ffffffffffffffffffffffffffffffffffffffff16815260200190815260200160002060006101000a81548160ff0219169083151502179055506001600360148282829054906101000a900460ff16610b539190612f6c565b92506101000a81548160ff021916908360ff160217905550600760008373ffffffffffffffffffffffffffffffffffffffff1673ffffffffffffffffffffffffffffffffffffffff16815260200190815260200160002060009054906101000a900460ff169050919050565b6000600760003373ffffffffffffffffffffffffffffffffffffffff1673ffffffffffffffffffffffffffffffffffffffff16815260200190815260200160002060009054906101000a900460ff16610c4d576040517f08c379a0000000000000000000000000000000000000000000000000000000008152600401610c4490613015565b60405180910390fd5b662386f26fc10000341015610c97576040517f08c379a0000000000000000000000000000000000000000000000000000000008152600401610c8e90613081565b60405180910390fd5b600080600360009054906101000a900473ffffffffffffffffffffffffffffffffffffffff16905063622d25f04210158015610cd7575063622e77704211155b15610ce55760019150610d2f565b63623f9af04210158015610cfd5750636240de604211155b15610d0b5760029150610d2e565b636248c7604210158015610d23575063624a18e04211155b15610d2d57600391505b5b5b6000821415610d73576040517f08c379a0000000000000000000000000000000000000000000000000000000008152600401610d6a906130ed565b60405180910390fd5b6000610d7f33846103b6565b14610dbf576040517f08c379a0000000000000000000000000000000000000000000000000000000008152600401610db69061317f565b60405180910390fd5b610ddb3383600160405180602001604052806000815250611160565b8073ffffffffffffffffffffffffffffffffffffffff166108fc349081150290604051600060405180830381858888f19350505050158015610e21573d6000803e3d6000fd5b50819250505090565b610e3c610e356112f6565b8383611612565b5050565b60606040518060800160405280605081526020016139d860509139905090565b6000600160008473ffffffffffffffffffffffffffffffffffffffff1673ffffffffffffffffffffffffffffffffffffffff16815260200190815260200160002060008373ffffffffffffffffffffffffffffffffffffffff1673ffffffffffffffffffffffffffffffffffffffff16815260200190815260200160002060009054906101000a900460ff16905092915050565b610efc6112f6565b73ffffffffffffffffffffffffffffffffffffffff168573ffffffffffffffffffffffffffffffffffffffff161480610f425750610f4185610f3c6112f6565b610e60565b5b610f81576040517f08c379a0000000000000000000000000000000000000000000000000000000008152600401610f7890613211565b60405180910390fd5b610f8e858585858561177f565b5050505050565b60007f01ffc9a7000000000000000000000000000000000000000000000000000000007bffffffffffffffffffffffffffffffffffffffffffffffffffffffff1916827bffffffffffffffffffffffffffffffffffffffffffffffffffffffff1916149050919050565b60606000821415611047576040518060400160405280600181526020017f3000000000000000000000000000000000000000000000000000000000000000815250905061115b565b600082905060005b6000821461107957808061106290612e18565b915050600a826110729190613260565b915061104f565b60008167ffffffffffffffff811115611095576110946120e1565b5b6040519080825280601f01601f1916602001820160405280156110c75781602001600182028036833780820191505090505b5090505b60008514611154576001826110e09190613291565b9150600a856110ef91906132c5565b60306110fb91906132f6565b60f81b81838151811061111157611110612dba565b5b60200101907effffffffffffffffffffffffffffffffffffffffffffffffffffffffffffff1916908160001a905350600a8561114d9190613260565b94506110cb565b8093505050505b919050565b600073ffffffffffffffffffffffffffffffffffffffff168473ffffffffffffffffffffffffffffffffffffffff1614156111d0576040517f08c379a00000000000000000000000000000000000000000000000000000000081526004016111c7906133be565b60405180910390fd5b60006111da6112f6565b90506111fb816000876111ec88611a01565b6111f588611a01565b87611a7b565b8260008086815260200190815260200160002060008773ffffffffffffffffffffffffffffffffffffffff1673ffffffffffffffffffffffffffffffffffffffff168152602001908152602001600020600082825461125a91906132f6565b925050819055508473ffffffffffffffffffffffffffffffffffffffff16600073ffffffffffffffffffffffffffffffffffffffff168273ffffffffffffffffffffffffffffffffffffffff167fc3d58168c5ae7397731d063d5bbf3d657854427343f4c083240f7aacaa2d0f6287876040516112d89291906133de565b60405180910390a46112ef81600087878787611a83565b5050505050565b600033905090565b8151835114611342576040517f08c379a000000000000000000000000000000000000000000000000000000000815260040161133990613479565b60405180910390fd5b600073ffffffffffffffffffffffffffffffffffffffff168473ffffffffffffffffffffffffffffffffffffffff1614156113b2576040517f08c379a00000000000000000000000000000000000000000000000000000000081526004016113a99061350b565b60405180910390fd5b60006113bc6112f6565b90506113cc818787878787611a7b565b60005b845181101561157d5760008582815181106113ed576113ec612dba565b5b60200260200101519050600085838151811061140c5761140b612dba565b5b60200260200101519050600080600084815260200190815260200160002060008b73ffffffffffffffffffffffffffffffffffffffff1673ffffffffffffffffffffffffffffffffffffffff168152602001908152602001600020549050818110156114ad576040517f08c379a00000000000000000000000000000000000000000000000000000000081526004016114a49061359d565b60405180910390fd5b81810360008085815260200190815260200160002060008c73ffffffffffffffffffffffffffffffffffffffff1673ffffffffffffffffffffffffffffffffffffffff168152602001908152602001600020819055508160008085815260200190815260200160002060008b73ffffffffffffffffffffffffffffffffffffffff1673ffffffffffffffffffffffffffffffffffffffff168152602001908152602001600020600082825461156291906132f6565b925050819055505050508061157690612e18565b90506113cf565b508473ffffffffffffffffffffffffffffffffffffffff168673ffffffffffffffffffffffffffffffffffffffff168273ffffffffffffffffffffffffffffffffffffffff167f4a39dc06d4c0dbc64b70af90fd698a233a518aa5d07e595d983b8c0526c8f7fb87876040516115f49291906135bd565b60405180910390a461160a818787878787611c5b565b505050505050565b8173ffffffffffffffffffffffffffffffffffffffff168373ffffffffffffffffffffffffffffffffffffffff161415611681576040517f08c379a000000000000000000000000000000000000000000000000000000000815260040161167890613666565b60405180910390fd5b80600160008573ffffffffffffffffffffffffffffffffffffffff1673ffffffffffffffffffffffffffffffffffffffff16815260200190815260200160002060008473ffffffffffffffffffffffffffffffffffffffff1673ffffffffffffffffffffffffffffffffffffffff16815260200190815260200160002060006101000a81548160ff0219169083151502179055508173ffffffffffffffffffffffffffffffffffffffff168373ffffffffffffffffffffffffffffffffffffffff167f17307eab39ab6107e8899845ad3d59bd9653f200f220920489ca2b5937696c318360405161177291906120ab565b60405180910390a3505050565b600073ffffffffffffffffffffffffffffffffffffffff168473ffffffffffffffffffffffffffffffffffffffff1614156117ef576040517f08c379a00000000000000000000000000000000000000000000000000000000081526004016117e69061350b565b60405180910390fd5b60006117f96112f6565b905061181981878761180a88611a01565b61181388611a01565b87611a7b565b600080600086815260200190815260200160002060008873ffffffffffffffffffffffffffffffffffffffff1673ffffffffffffffffffffffffffffffffffffffff168152602001908152602001600020549050838110156118b0576040517f08c379a00000000000000000000000000000000000000000000000000000000081526004016118a79061359d565b60405180910390fd5b83810360008087815260200190815260200160002060008973ffffffffffffffffffffffffffffffffffffffff1673ffffffffffffffffffffffffffffffffffffffff168152602001908152602001600020819055508360008087815260200190815260200160002060008873ffffffffffffffffffffffffffffffffffffffff1673ffffffffffffffffffffffffffffffffffffffff168152602001908152602001600020600082825461196591906132f6565b925050819055508573ffffffffffffffffffffffffffffffffffffffff168773ffffffffffffffffffffffffffffffffffffffff168373ffffffffffffffffffffffffffffffffffffffff167fc3d58168c5ae7397731d063d5bbf3d657854427343f4c083240f7aacaa2d0f6288886040516119e29291906133de565b60405180910390a46119f8828888888888611a83565b50505050505050565b60606000600167ffffffffffffffff811115611a2057611a1f6120e1565b5b604051908082528060200260200182016040528015611a4e5781602001602082028036833780820191505090505b5090508281600081518110611a6657611a65612dba565b5b60200260200101818152505080915050919050565b505050505050565b611aa28473ffffffffffffffffffffffffffffffffffffffff16611e33565b15611c53578373ffffffffffffffffffffffffffffffffffffffff1663f23a6e6187878686866040518663ffffffff1660e01b8152600401611ae89594939291906136ea565b6020604051808303816000875af1925050508015611b2457506040513d601f19601f82011682018060405250810190611b219190613759565b60015b611bca57611b30613793565b806308c379a01415611b8d5750611b456137b5565b80611b505750611b8f565b806040517f08c379a0000000000000000000000000000000000000000000000000000000008152600401611b84919061230a565b60405180910390fd5b505b6040517f08c379a0000000000000000000000000000000000000000000000000000000008152600401611bc1906138bd565b60405180910390fd5b63f23a6e6160e01b7bffffffffffffffffffffffffffffffffffffffffffffffffffffffff1916817bffffffffffffffffffffffffffffffffffffffffffffffffffffffff191614611c51576040517f08c379a0000000000000000000000000000000000000000000000000000000008152600401611c489061394f565b60405180910390fd5b505b505050505050565b611c7a8473ffffffffffffffffffffffffffffffffffffffff16611e33565b15611e2b578373ffffffffffffffffffffffffffffffffffffffff1663bc197c8187878686866040518663ffffffff1660e01b8152600401611cc095949392919061396f565b6020604051808303816000875af1925050508015611cfc57506040513d601f19601f82011682018060405250810190611cf99190613759565b60015b611da257611d08613793565b806308c379a01415611d655750611d1d6137b5565b80611d285750611d67565b806040517f08c379a0000000000000000000000000000000000000000000000000000000008152600401611d5c919061230a565b60405180910390fd5b505b6040517f08c379a0000000000000000000000000000000000000000000000000000000008152600401611d99906138bd565b60405180910390fd5b63bc197c8160e01b7bffffffffffffffffffffffffffffffffffffffffffffffffffffffff1916817bffffffffffffffffffffffffffffffffffffffffffffffffffffffff191614611e29576040517f08c379a0000000000000000000000000000000000000000000000000000000008152600401611e209061394f565b60405180910390fd5b505b505050505050565b6000808273ffffffffffffffffffffffffffffffffffffffff163b119050919050565b828054611e6290612ac2565b90600052602060002090601f016020900481019282611e845760008555611ecb565b82601f10611e9d57805160ff1916838001178555611ecb565b82800160010185558215611ecb579182015b82811115611eca578251825591602001919060010190611eaf565b5b509050611ed89190611edc565b5090565b5b80821115611ef5576000816000905550600101611edd565b5090565b6000604051905090565b600080fd5b600080fd5b600073ffffffffffffffffffffffffffffffffffffffff82169050919050565b6000611f3882611f0d565b9050919050565b611f4881611f2d565b8114611f5357600080fd5b50565b600081359050611f6581611f3f565b92915050565b6000819050919050565b611f7e81611f6b565b8114611f8957600080fd5b50565b600081359050611f9b81611f75565b92915050565b60008060408385031215611fb857611fb7611f03565b5b6000611fc685828601611f56565b9250506020611fd785828601611f8c565b9150509250929050565b611fea81611f6b565b82525050565b60006020820190506120056000830184611fe1565b92915050565b60007fffffffff0000000000000000000000000000000000000000000000000000000082169050919050565b6120408161200b565b811461204b57600080fd5b50565b60008135905061205d81612037565b92915050565b60006020828403121561207957612078611f03565b5b60006120878482850161204e565b91505092915050565b60008115159050919050565b6120a581612090565b82525050565b60006020820190506120c0600083018461209c565b92915050565b600080fd5b600080fd5b6000601f19601f8301169050919050565b7f4e487b7100000000000000000000000000000000000000000000000000000000600052604160045260246000fd5b612119826120d0565b810181811067ffffffffffffffff82111715612138576121376120e1565b5b80604052505050565b600061214b611ef9565b90506121578282612110565b919050565b600067ffffffffffffffff821115612177576121766120e1565b5b612180826120d0565b9050602081019050919050565b82818337600083830152505050565b60006121af6121aa8461215c565b612141565b9050828152602081018484840111156121cb576121ca6120cb565b5b6121d684828561218d565b509392505050565b600082601f8301126121f3576121f26120c6565b5b813561220384826020860161219c565b91505092915050565b60006020828403121561222257612221611f03565b5b600082013567ffffffffffffffff8111156122405761223f611f08565b5b61224c848285016121de565b91505092915050565b60006020828403121561226b5761226a611f03565b5b600061227984828501611f8c565b91505092915050565b600081519050919050565b600082825260208201905092915050565b60005b838110156122bc5780820151818401526020810190506122a1565b838111156122cb576000848401525b50505050565b60006122dc82612282565b6122e6818561228d565b93506122f681856020860161229e565b6122ff816120d0565b840191505092915050565b6000602082019050818103600083015261232481846122d1565b905092915050565b6000806040838503121561234357612342611f03565b5b600061235185828601611f8c565b925050602061236285828601611f8c565b9150509250929050565b600067ffffffffffffffff821115612387576123866120e1565b5b602082029050602081019050919050565b600080fd5b60006123b06123ab8461236c565b612141565b905080838252602082019050602084028301858111156123d3576123d2612398565b5b835b818110156123fc57806123e88882611f8c565b8452602084019350506020810190506123d5565b5050509392505050565b600082601f83011261241b5761241a6120c6565b5b813561242b84826020860161239d565b91505092915050565b600067ffffffffffffffff82111561244f5761244e6120e1565b5b612458826120d0565b9050602081019050919050565b600061247861247384612434565b612141565b905082815260208101848484011115612494576124936120cb565b5b61249f84828561218d565b509392505050565b600082601f8301126124bc576124bb6120c6565b5b81356124cc848260208601612465565b91505092915050565b600080600080600060a086880312156124f1576124f0611f03565b5b60006124ff88828901611f56565b955050602061251088828901611f56565b945050604086013567ffffffffffffffff81111561253157612530611f08565b5b61253d88828901612406565b935050606086013567ffffffffffffffff81111561255e5761255d611f08565b5b61256a88828901612406565b925050608086013567ffffffffffffffff81111561258b5761258a611f08565b5b612597888289016124a7565b9150509295509295909350565b600080604083850312156125bb576125ba611f03565b5b60006125c985828601611f8c565b92505060206125da85828601611f56565b9150509250929050565b600067ffffffffffffffff8211156125ff576125fe6120e1565b5b602082029050602081019050919050565b600061262361261e846125e4565b612141565b9050808382526020820190506020840283018581111561264657612645612398565b5b835b8181101561266f578061265b8882611f56565b845260208401935050602081019050612648565b5050509392505050565b600082601f83011261268e5761268d6120c6565b5b813561269e848260208601612610565b91505092915050565b600080604083850312156126be576126bd611f03565b5b600083013567ffffffffffffffff8111156126dc576126db611f08565b5b6126e885828601612679565b925050602083013567ffffffffffffffff81111561270957612708611f08565b5b61271585828601612406565b9150509250929050565b600081519050919050565b600082825260208201905092915050565b6000819050602082019050919050565b61275481611f6b565b82525050565b6000612766838361274b565b60208301905092915050565b6000602082019050919050565b600061278a8261271f565b612794818561272a565b935061279f8361273b565b8060005b838110156127d05781516127b7888261275a565b97506127c283612772565b9250506001810190506127a3565b5085935050505092915050565b600060208201905081810360008301526127f7818461277f565b905092915050565b60006020828403121561281557612814611f03565b5b600061282384828501611f56565b91505092915050565b61283581612090565b811461284057600080fd5b50565b6000813590506128528161282c565b92915050565b6000806040838503121561286f5761286e611f03565b5b600061287d85828601611f56565b925050602061288e85828601612843565b9150509250929050565b600080604083850312156128af576128ae611f03565b5b60006128bd85828601611f56565b92505060206128ce85828601611f56565b9150509250929050565b600080600080600060a086880312156128f4576128f3611f03565b5b600061290288828901611f56565b955050602061291388828901611f56565b945050604061292488828901611f8c565b935050606061293588828901611f8c565b925050608086013567ffffffffffffffff81111561295657612955611f08565b5b612962888289016124a7565b9150509295509295909350565b7f455243313135353a2062616c616e636520717565727920666f7220746865207a60008201527f65726f2061646472657373000000000000000000000000000000000000000000602082015250565b60006129cb602b8361228d565b91506129d68261296f565b604082019050919050565b600060208201905081810360008301526129fa816129be565b9050919050565b7f596f7520646f6e27742068617665207065726d697373696f6e7320746f20657860008201527f656375746520746869732066756e6374696f6e00000000000000000000000000602082015250565b6000612a5d60338361228d565b9150612a6882612a01565b604082019050919050565b60006020820190508181036000830152612a8c81612a50565b9050919050565b7f4e487b7100000000000000000000000000000000000000000000000000000000600052602260045260246000fd5b60006002820490506001821680612ada57607f821691505b60208210811415612aee57612aed612a93565b5b50919050565b600081905092915050565b60008190508160005260206000209050919050565b60008154612b2181612ac2565b612b2b8186612af4565b94506001821660008114612b465760018114612b5757612b8a565b60ff19831686528186019350612b8a565b612b6085612aff565b60005b83811015612b8257815481890152600182019150602081019050612b63565b838801955050505b50505092915050565b7f2f00000000000000000000000000000000000000000000000000000000000000600082015250565b6000612bc9600183612af4565b9150612bd482612b93565b600182019050919050565b6000612bea82612282565b612bf48185612af4565b9350612c0481856020860161229e565b80840191505092915050565b7f2e6a736f6e000000000000000000000000000000000000000000000000000000600082015250565b6000612c46600583612af4565b9150612c5182612c10565b600582019050919050565b6000612c688285612b14565b9150612c7382612bbc565b9150612c7f8284612bdf565b9150612c8a82612c39565b91508190509392505050565b7f455243313135353a207472616e736665722063616c6c6572206973206e6f742060008201527f6f776e6572206e6f7220617070726f7665640000000000000000000000000000602082015250565b6000612cf260328361228d565b9150612cfd82612c96565b604082019050919050565b60006020820190508181036000830152612d2181612ce5565b9050919050565b7f455243313135353a206163636f756e747320616e6420696473206c656e67746860008201527f206d69736d617463680000000000000000000000000000000000000000000000602082015250565b6000612d8460298361228d565b9150612d8f82612d28565b604082019050919050565b60006020820190508181036000830152612db381612d77565b9050919050565b7f4e487b7100000000000000000000000000000000000000000000000000000000600052603260045260246000fd5b7f4e487b7100000000000000000000000000000000000000000000000000000000600052601160045260246000fd5b6000612e2382611f6b565b91507fffffffffffffffffffffffffffffffffffffffffffffffffffffffffffffffff821415612e5657612e55612de9565b5b600182019050919050565b7f5573657220616c726561647920696e2077686974656c69737400000000000000600082015250565b6000612e9760198361228d565b9150612ea282612e61565b602082019050919050565b60006020820190508181036000830152612ec681612e8a565b9050919050565b7f4d6178696d756d206e756d626572206f662075736572732077686974656c697360008201527f7465640000000000000000000000000000000000000000000000000000000000602082015250565b6000612f2960238361228d565b9150612f3482612ecd565b604082019050919050565b60006020820190508181036000830152612f5881612f1c565b9050919050565b600060ff82169050919050565b6000612f7782612f5f565b9150612f8283612f5f565b92508260ff03821115612f9857612f97612de9565b5b828201905092915050565b7f596f7520646f6e2774206861766572207065726d697373696f6e7320746f206560008201527f78656375746520746869732066756e6374696f6e000000000000000000000000602082015250565b6000612fff60348361228d565b915061300a82612fa3565b604082019050919050565b6000602082019050818103600083015261302e81612ff2565b9050919050565b7f496e74726f647563652074686520636f72726563742070726963650000000000600082015250565b600061306b601b8361228d565b915061307682613035565b602082019050919050565b6000602082019050818103600083015261309a8161305e565b9050919050565b7f4f7574206f662064617465000000000000000000000000000000000000000000600082015250565b60006130d7600b8361228d565b91506130e2826130a1565b602082019050919050565b60006020820190508181036000830152613106816130ca565b9050919050565b7f4d6178696d756d206f6620746f6b656e73206d696e746564206f6e207072657360008201527f616c650000000000000000000000000000000000000000000000000000000000602082015250565b600061316960238361228d565b91506131748261310d565b604082019050919050565b600060208201905081810360008301526131988161315c565b9050919050565b7f455243313135353a2063616c6c6572206973206e6f74206f776e6572206e6f7260008201527f20617070726f7665640000000000000000000000000000000000000000000000602082015250565b60006131fb60298361228d565b91506132068261319f565b604082019050919050565b6000602082019050818103600083015261322a816131ee565b9050919050565b7f4e487b7100000000000000000000000000000000000000000000000000000000600052601260045260246000fd5b600061326b82611f6b565b915061327683611f6b565b92508261328657613285613231565b5b828204905092915050565b600061329c82611f6b565b91506132a783611f6b565b9250828210156132ba576132b9612de9565b5b828203905092915050565b60006132d082611f6b565b91506132db83611f6b565b9250826132eb576132ea613231565b5b828206905092915050565b600061330182611f6b565b915061330c83611f6b565b9250827fffffffffffffffffffffffffffffffffffffffffffffffffffffffffffffffff0382111561334157613340612de9565b5b828201905092915050565b7f455243313135353a206d696e7420746f20746865207a65726f2061646472657360008201527f7300000000000000000000000000000000000000000000000000000000000000602082015250565b60006133a860218361228d565b91506133b38261334c565b604082019050919050565b600060208201905081810360008301526133d78161339b565b9050919050565b60006040820190506133f36000830185611fe1565b6134006020830184611fe1565b9392505050565b7f455243313135353a2069647320616e6420616d6f756e7473206c656e6774682060008201527f6d69736d61746368000000000000000000000000000000000000000000000000602082015250565b600061346360288361228d565b915061346e82613407565b604082019050919050565b6000602082019050818103600083015261349281613456565b9050919050565b7f455243313135353a207472616e7366657220746f20746865207a65726f20616460008201527f6472657373000000000000000000000000000000000000000000000000000000602082015250565b60006134f560258361228d565b915061350082613499565b604082019050919050565b60006020820190508181036000830152613524816134e8565b9050919050565b7f455243313135353a20696e73756666696369656e742062616c616e636520666f60008201527f72207472616e7366657200000000000000000000000000000000000000000000602082015250565b6000613587602a8361228d565b91506135928261352b565b604082019050919050565b600060208201905081810360008301526135b68161357a565b9050919050565b600060408201905081810360008301526135d7818561277f565b905081810360208301526135eb818461277f565b90509392505050565b7f455243313135353a2073657474696e6720617070726f76616c2073746174757360008201527f20666f722073656c660000000000000000000000000000000000000000000000602082015250565b600061365060298361228d565b915061365b826135f4565b604082019050919050565b6000602082019050818103600083015261367f81613643565b9050919050565b61368f81611f2d565b82525050565b600081519050919050565b600082825260208201905092915050565b60006136bc82613695565b6136c681856136a0565b93506136d681856020860161229e565b6136df816120d0565b840191505092915050565b600060a0820190506136ff6000830188613686565b61370c6020830187613686565b6137196040830186611fe1565b6137266060830185611fe1565b818103608083015261373881846136b1565b90509695505050505050565b60008151905061375381612037565b92915050565b60006020828403121561376f5761376e611f03565b5b600061377d84828501613744565b91505092915050565b60008160e01c9050919050565b600060033d11156137b25760046000803e6137af600051613786565b90505b90565b600060443d10156137c557613848565b6137cd611ef9565b60043d036004823e80513d602482011167ffffffffffffffff821117156137f5575050613848565b808201805167ffffffffffffffff8111156138135750505050613848565b80602083010160043d038501811115613830575050505050613848565b61383f82602001850186612110565b82955050505050505b90565b7f455243313135353a207472616e7366657220746f206e6f6e204552433131353560008201527f526563656976657220696d706c656d656e746572000000000000000000000000602082015250565b60006138a760348361228d565b91506138b28261384b565b604082019050919050565b600060208201905081810360008301526138d68161389a565b9050919050565b7f455243313135353a204552433131353552656365697665722072656a6563746560008201527f6420746f6b656e73000000000000000000000000000000000000000000000000602082015250565b600061393960288361228d565b9150613944826138dd565b604082019050919050565b600060208201905081810360008301526139688161392c565b9050919050565b600060a0820190506139846000830188613686565b6139916020830187613686565b81810360408301526139a3818661277f565b905081810360608301526139b7818561277f565b905081810360808301526139cb81846136b1565b9050969550505050505056fe68747470733a2f2f676174657761792e70696e6174612e636c6f75642f697066732f516d536756314e597955636e525633483371467363366174585076505266386835744a4e6f755a626e6b347a6752a2646970667358221220f48e6c5c6f85fa5cf40aaddbc4664ecfcb1db1687c2e4d7da20805883bab627764736f6c634300080a003368747470733a2f2f697066732e696f2f697066732f516d53395a595555476f36414333394d70327973647643654e6f4b4a3467636656415058447a7672794b346a6563",
  "immutableReferences": {},
  "source": "// SPDX-License-Identifier: MIT\r\npragma solidity ^0.8.0;\r\n\r\nimport \"../../node_modules/@openzeppelin/contracts/token/ERC1155/ERC1155.sol\";\r\nimport \"../../node_modules/@openzeppelin/contracts/utils/Strings.sol\";\r\ncontract collection is ERC1155 {\r\n\r\n    address private owner;\r\n    uint8 private usersWhitelisted = 0;\r\n    string private _uri = \"https://ipfs.io/ipfs/QmS9ZYUUGo6AC39Mp2ysdvCeNoKJ4gcfVAPXDzvryK4jec\";\r\n    uint256 private royaltie = (msg.value*2)/100;\r\n    \r\n    mapping(uint256 => string) _tokenURI;\r\n    mapping(address => bool) _isUserOnWhitelist;\r\n\r\n    modifier onlyOwner(){\r\n        require(msg.sender == owner, \"You don't have permissions to execute this function\");\r\n        _;\r\n    }\r\n\r\n    modifier whitelistHolder(){\r\n        require(_isUserOnWhitelist[msg.sender], \"You don't haver permissions to execute this function\");\r\n        _;\r\n    }\r\n    \r\n    constructor() ERC1155(_uri){\r\n        owner = msg.sender;\r\n    } \r\n\r\n    //mint token\r\n    function mint(uint256 tokenId, uint256 amount) public onlyOwner() returns(bool) {\r\n        _mint(msg.sender, tokenId, amount, \"\");\r\n        return true;\r\n    }\r\n\r\n    function giveaway(uint256 tokenId, address holder) public onlyOwner() returns(bool) {\r\n        _mint(holder, tokenId, 1, \"\");\r\n        return true;\r\n    }\r\n\r\n    //modify URI\r\n    function uri(uint256 tokenId) public view virtual override returns (string memory){\r\n        return(string(abi.encodePacked(_uri,\"/\", Strings.toString(tokenId),\".json\")));\r\n    }\r\n\r\n    function setURI(string memory tokenURI) public onlyOwner() {\r\n        _uri = tokenURI;\r\n    }\r\n\r\n    function addUserToWhitelist(address holder) public onlyOwner() returns(bool){\r\n        require(!_isUserOnWhitelist[holder], \"User already in whitelist\");\r\n        require(usersWhitelisted < 150, \"Maximum number of users whitelisted\");\r\n\r\n        _isUserOnWhitelist[holder] = true;\r\n        usersWhitelisted += 1;\r\n\r\n        return _isUserOnWhitelist[holder];\r\n    }\r\n\r\n    function mintInWhitelist() public whitelistHolder() payable returns(uint) {\r\n        require(msg.value >= 0.01 ether, \"Introduce the correct price\");    \r\n\r\n        uint tokenId = 0;\r\n        address payable to = payable(owner);\r\n\r\n        if(block.timestamp >= 1647126000 && block.timestamp <= 1647212400){ // Date between 13/03 and 14/03\r\n            tokenId = 1;\r\n        } else if(block.timestamp >= 1648335600 && block.timestamp <= 1648418400){ // Date between 27/03 and 14/03\r\n            tokenId = 2;\r\n        } else if(block.timestamp >= 1648936800 && block.timestamp <= 1649023200){ //Date between 03/04 and 04/04\r\n            tokenId = 3;\r\n        }\r\n\r\n        require(tokenId != 0, \"Out of date\");\r\n        require(balanceOf(msg.sender, tokenId) == 0, \"Maximum of tokens minted on presale\");\r\n        \r\n        _mint(msg.sender, tokenId, 1, \"\");       \r\n        \r\n        to.transfer(msg.value); //Send the part to the contract owner\r\n       \r\n        return tokenId;\r\n    }\r\n\r\n    function contractURI() public pure returns(string memory){\r\n        return \"https://gateway.pinata.cloud/ipfs/QmSgV1NYyUcnRV3H3qFsc6atXPvPRf8h5tJNouZbnk4zgR\";\r\n    }\r\n\r\n}",
  "sourcePath": "D:\\Documentos\\Trabajos\\AnimalesProject\\src\\contracts\\AnimalesCollection.sol",
  "compiler": {
    "name": "solc",
    "version": "0.8.10+commit.fc410830.Emscripten.clang"
  },
  "schemaVersion": "3.4.3",
  "updatedAt": "2022-03-04T13:46:01.215Z",
  "networkType": "ethereum",
  "devdoc": {
    "kind": "dev",
    "methods": {
      "balanceOf(address,uint256)": {
        "details": "See {IERC1155-balanceOf}. Requirements: - `account` cannot be the zero address."
      },
      "balanceOfBatch(address[],uint256[])": {
        "details": "See {IERC1155-balanceOfBatch}. Requirements: - `accounts` and `ids` must have the same length."
      },
      "isApprovedForAll(address,address)": {
        "details": "See {IERC1155-isApprovedForAll}."
      },
      "safeBatchTransferFrom(address,address,uint256[],uint256[],bytes)": {
        "details": "See {IERC1155-safeBatchTransferFrom}."
      },
      "safeTransferFrom(address,address,uint256,uint256,bytes)": {
        "details": "See {IERC1155-safeTransferFrom}."
      },
      "setApprovalForAll(address,bool)": {
        "details": "See {IERC1155-setApprovalForAll}."
      },
      "supportsInterface(bytes4)": {
        "details": "See {IERC165-supportsInterface}."
      }
    },
    "version": 1
  },
  "userdoc": {
    "kind": "user",
    "methods": {},
    "version": 1
  }
}